{
  "contractName": "TodoList",
  "abi": [
    {
      "constant": true,
      "inputs": [],
      "name": "taskcount",
      "outputs": [
        {
          "name": "",
          "type": "uint256"
        }
      ],
      "payable": false,
      "stateMutability": "view",
      "type": "function",
      "signature": "0x8bd48089"
    },
    {
      "constant": true,
      "inputs": [
        {
          "name": "",
          "type": "uint256"
        }
      ],
      "name": "tasks",
      "outputs": [
        {
          "name": "id",
          "type": "uint256"
        },
        {
          "name": "content",
          "type": "string"
        },
        {
          "name": "completed",
          "type": "bool"
        }
      ],
      "payable": false,
      "stateMutability": "view",
      "type": "function",
      "signature": "0x8d977672"
    },
    {
      "inputs": [],
      "payable": false,
      "stateMutability": "nonpayable",
      "type": "constructor",
      "signature": "constructor"
    },
    {
      "anonymous": false,
      "inputs": [
        {
          "indexed": false,
          "name": "id",
          "type": "uint256"
        },
        {
          "indexed": false,
          "name": "completed",
          "type": "bool"
        }
      ],
      "name": "TaskCompleted",
      "type": "event",
      "signature": "0xe21fa966ca5cd02748c0752352d18c48165e61cb55b4c29cccf924b5a95fcff1"
    },
    {
      "constant": false,
      "inputs": [
        {
          "name": "_content",
          "type": "string"
        }
      ],
      "name": "createTasks",
      "outputs": [],
      "payable": false,
      "stateMutability": "nonpayable",
      "type": "function",
      "signature": "0xc45d2e00"
    },
    {
      "constant": false,
      "inputs": [
        {
          "name": "_id",
          "type": "uint256"
        }
      ],
      "name": "taskStatus",
      "outputs": [],
      "payable": false,
      "stateMutability": "nonpayable",
      "type": "function",
      "signature": "0x546e9179"
    }
  ],
  "bytecode": "0x60806040526000805534801561001457600080fd5b506100626040805190810160405280600781526020017f6879206775797300000000000000000000000000000000000000000000000000815250610067640100000000026401000000009004565b61019f565b600080815480929190600101919050555060606040519081016040528060005481526020018281526020016000151581525060016000805481526020019081526020016000206000820151816000015560208201518160010190805190602001906100d39291906100fa565b5060408201518160020160006101000a81548160ff02191690831515021790555090505050565b828054600181600116156101000203166002900490600052602060002090601f016020900481019282601f1061013b57805160ff1916838001178555610169565b82800160010185558215610169579182015b8281111561016857825182559160200191906001019061014d565b5b509050610176919061017a565b5090565b61019c91905b80821115610198576000816000905550600101610180565b5090565b90565b610702806101ae6000396000f3fe608060405260043610610062576000357c0100000000000000000000000000000000000000000000000000000000900463ffffffff168063546e9179146100675780638bd48089146100a25780638d977672146100cd578063c45d2e0014610193575b600080fd5b34801561007357600080fd5b506100a06004803603602081101561008a57600080fd5b810190808035906020019092919050505061025b565b005b3480156100ae57600080fd5b506100b761045d565b6040518082815260200191505060405180910390f35b3480156100d957600080fd5b50610106600480360360208110156100f057600080fd5b8101908080359060200190929190505050610463565b604051808481526020018060200183151515158152602001828103825284818151815260200191508051906020019080838360005b8381101561015657808201518184015260208101905061013b565b50505050905090810190601f1680156101835780820380516001836020036101000a031916815260200191505b5094505050505060405180910390f35b34801561019f57600080fd5b50610259600480360360208110156101b657600080fd5b81019080803590602001906401000000008111156101d357600080fd5b8201836020820111156101e557600080fd5b8035906020019184600183028401116401000000008311171561020757600080fd5b91908080601f016020809104026020016040519081016040528093929190818152602001838380828437600081840152601f19601f820116905080830192505050505050509192919290505050610532565b005b6102636105c5565b600160008381526020019081526020016000206060604051908101604052908160008201548152602001600182018054600181600116156101000203166002900480601f0160208091040260200160405190810160405280929190818152602001828054600181600116156101000203166002900480156103255780601f106102fa57610100808354040283529160200191610325565b820191906000526020600020905b81548152906001019060200180831161030857829003601f168201915b505050505081526020016002820160009054906101000a900460ff1615151515815250509050806040015115816040019015159081151581525050806001600084815260200190815260200160002060008201518160000155602082015181600101908051906020019061039a9291906105e9565b5060408201518160020160006101000a81548160ff0219169083151502179055509050507fe21fa966ca5cd02748c0752352d18c48165e61cb55b4c29cccf924b5a95fcff182826040015160405180838152602001821515151581526020019250505060405180910390a1600160008381526020019081526020016000206000808201600090556001820160006104319190610669565b6002820160006101000a81549060ff021916905550506000808154809291906001900391905055505050565b60005481565b6001602052806000526040600020600091509050806000015490806001018054600181600116156101000203166002900480601f0160208091040260200160405190810160405280929190818152602001828054600181600116156101000203166002900480156105155780601f106104ea57610100808354040283529160200191610515565b820191906000526020600020905b8154815290600101906020018083116104f857829003601f168201915b5050505050908060020160009054906101000a900460ff16905083565b6000808154809291906001019190505550606060405190810160405280600054815260200182815260200160001515815250600160008054815260200190815260200160002060008201518160000155602082015181600101908051906020019061059e9291906105e9565b5060408201518160020160006101000a81548160ff02191690831515021790555090505050565b60606040519081016040528060008152602001606081526020016000151581525090565b828054600181600116156101000203166002900490600052602060002090601f016020900481019282601f1061062a57805160ff1916838001178555610658565b82800160010185558215610658579182015b8281111561065757825182559160200191906001019061063c565b5b50905061066591906106b1565b5090565b50805460018160011615610100020316600290046000825580601f1061068f57506106ae565b601f0160209004906000526020600020908101906106ad91906106b1565b5b50565b6106d391905b808211156106cf5760008160009055506001016106b7565b5090565b9056fea165627a7a72305820dcd64e6f73cd21f1f39cc765f082943ea217d23745db702a43a1a9b25b3270b40029",
  "source": "// SPDX-License-Identifier: MIT\r\npragma solidity >=0.4.22 <0.9.0;\r\n\r\ncontract TodoList {\r\n    uint  public taskcount = 0;\r\n\r\n    struct Task {\r\n        uint id;\r\n        string content;\r\n        bool completed;\r\n    }\r\n\r\n    mapping(uint =>Task) public tasks;\r\n    \r\n    event TaskCompleted(\r\n     uint id,\r\n     bool completed\r\n    );\r\n\r\n    constructor() public {\r\n       createTasks('hy guys');\r\n    }\r\n\r\n    function createTasks(string memory _content) public {\r\n    taskcount++;\r\n    tasks[taskcount] = Task(taskcount, _content, false);\r\n\r\n    }\r\n    function taskStatus(uint _id) public {\r\n    Task memory _task = tasks[_id];\r\n    _task.completed = !_task.completed;\r\n    tasks[_id] = _task;\r\n     emit TaskCompleted(_id, _task.completed);\r\n    delete tasks[_id];\r\n    taskcount--;\r\n    }\r\n}\r\n",
  "sourcePath": "C:/Users/Apple/Desktop/Js project/eth-todo-list/contracts/Todolist.sol",
  "compiler": {
    "name": "solc",
    "version": "0.5.0+commit.1d4f565a.Emscripten.clang"
  },
  "schemaVersion": "3.0.1",
  "updatedAt": "2022-05-10T11:42:38.268Z",
  "devdoc": {
    "methods": {}
  },
  "userdoc": {
    "methods": {}
  }
}